:060000000A128A11002A19
:10000800A100030EA2000B19252032200B18122084
:100018001A20220E8300A10E210E09000313831259
:10002800061C850A861C85030B100800851B1F28E3
:10003800051A85010800850105148514051585151F
:100048000800031383123C3081000B11A00B080039
:100058002F20A30A08000A30A0000800A31B372895
:10006800231AA3010800A3012314A3142315A3151D
:0200780008007E
:100200008A010A148207C034F934A434B034993412
:1002100092348234F8348034903488348334C63451
:06022000A13486348E3487
:100400000A30A000A301A4012B22172238220E22B9
:100410003F220313831245224A220B2A0313831619
:10042000161496140313831206080B100800031702
:1004300083168801890103138316850187018801CA
:100440000614861415149514811303138312850161
:100450008701880108000313831681128111011599
:1004600081100110031383123C3081000B1108002E
:10047000031383160F138F160F120F1408008B1718
:100480008B150B108B160B11080023080021880018
:100490004E22080024080021870008000A302302A9
:1004A000031D0800542208000311A301582208006C
:1004B000A40A06302402031D08005F22080003116D
:0404C000A40108008B
:04400E00D420FF3F7C
:00000001FF
